:10080A003F065B4F666D7D077F6F777C395E797136
:0C0827000210014002120064C100C10177
:0707F80093F5807F2C7E01C8
:0B07FF00EF1FAC0670011E4C70F622CC
:10074700E4FDD2917F0AFE1207FFC2917F507E001F
:100757001207FFD2917F147E001207FFA291E433A4
:08076700FD7F1E7E000207FF6A
:1007B800E4FB7D08C291EBC313FBD2913091034354
:0F07C80003807F087E001207FFDDE9AF037E008C
:0107D70022FF
:0207D800AD076B
:1007DA007B08C291ED1392917F0A7E001207FFD225
:0E07EA0091EDC313FDDBEB7F087E000207FFDD
:1005F700E4FAFFFDFCF51EF51DF51CF51B12074778
:100607007FCC1207D87F441207D81207477FCC1236
:1006170007D87FBE1207D81207B8AA071207B8ADC6
:1006270007EDFCEAFDEC120211E4FBFA7980783D54
:100637001201068F1E8E1D8D1C8C1BE4FFFE7D2074
:100647007C41AB1EAA1DA91CA81B120106E4FBFADC
:09065700F9783F12001512024A65
:010660002277
:10036400E50924FFFFE50834FFFEC3E49FF50FE42D
:100374009EF50EFEAF0F7C007D641202CB8F0B8FB7
:100384000CAE0EAF0F7C007D641202CB7E007F0AA0
:10039400CFCDCFCECCCE1202CB8F0DAE0EAF0F7C15
:1003A400007D0A1202CB8D0AE4F517F51875A0FF3B
:1003B400E4F58075A0FD7580807F64FE1207FF75EB
:1003C400A0FFE4F58075A0F77580407F64FE1207F6
:1003D400FF75A0FFE4F58075A0FBE50C90080A9377
:1003E400F5807F647E001207FF75A0FFE4F5807539
:1003F400A0FDE50D93F5807F647E001207FF75A0D4
:10040400FFE4F58075A0FEE50A93F5807F647E0025
:100414001207FF75A0FF0518E51870020517C394AD
:0A04240005E51764809480408422EF
:10042E00AE08AF097C037DE81202CB8F0BAE08AF8E
:10043E00097C007D641202CB7C007D0A1202CB8DFA
:10044E000CAE08AF097C007D641202CB7E007F0AE1
:10045E00CFCDCFCECCCE1202CB8F0DAE08AF097C56
:10046E00007D0A1202CB8D0AE4F517F51875A0FF70
:10047E00E4F58075A0FD7580801207FB75A0FFE482
:10048E00F58075A0F7E50B90080A1207F875A0FF26
:10049E00E4F58075A0FBE50C1207F875A0FFE4F5F6
:1004AE008075A0FDE50D1207F875A0FFE4F58075C7
:1004BE00A0FEE50A1207F875A0FF0518E5187002F0
:0E04CE000517C39403E5176480948040A022B4
:1004DC0020A52F7F147E001207FF20A52520A52222
:1004EC001206E7E4F519F51AC3E51A9408E5196440
:1004FC0080948050E8120797051AE51A70EA0519DE
:10050C0080E620A62F7F147E001207FF20A6252050
:10051C00A6221206B5E4F519F51AC3E51A9408E5F6
:10052C00196480948050E8120797051AE51A70EA4E
:10053C00051980E620A709D28C1205F78E088F09C1
:10054C0020A41B7F147E001207FF20A41130A4FDF1
:0F055C00B200200005C296D29722C297D29622F3
:1006E700C28C740A2509F509E43508F508C3E5093C
:1006F700944CE5086480948440067508FD7509DA12
:10070700200007850810850911228508128509131D
:0107170022BF
:1006B500C28C74F62509F50974FF3508F508D3E5EC
:1006C5000994DAE5086480947D5006750804750977
:1006D5004C20000785081085091122850812850917
:0206E5001322DE
:10076F00D3E5099511E5106480F8E5086480985089
:10077F0011C3E5099513E5126480F8E508648098C4
:08078F005003D20122C2012235
:1007180075804075A0F77F327E001207FF75A0FB39
:100728007F327E001207FF75A0FD7F327E00120720
:0F073800FF75A0FE7F327E001207FF7590FF2233
:10079700C3E508648094804007D292C29312042E66
:1007A700C3E508648094805007C292D29312036411
:0107B700221F
:10066100758801758901758CD8758AF0D2AFD2A9C8
:10067100D28CD2A8E4F519F51AD290D294120718A7
:10068100051AE51A70020519C394F4E519648094FA
:100691008140E6C2961204DC1205F78E158F161200
:1006A100079712076F300106B290B29480E7D2909B
:0406B100D29480E17E
:03000B0002081ACE
:0D081A00758C56758ADC8515088516093227
:10000E000202B6E86480F8E933E83360110460F068
:10001E00ED33EC337009E8FCE9FDEAFEEBFF220458
:10002E0060DED3EB9FEA9EE99DE8C2E78CF0C2F753
:10003E0095F0400CE8CCF8E9CDF9EACEFAEBCFFB1F
:10004E0012028185D0F05804700320D5B3E80470F5
:10005E00075002B2D50202C092D5EC0460F7E4CC90
:10006E00C0E0C398F8603B94186008400DD0E0FBE8
:10007E00020298E4FBFAC9FC8028E830E406E4C9E1
:10008E00FBE4CAFCE830E305E4C9CACBFCE854073C
:10009E006010F8C3E913F9EA13FAEB13FBEC13FC47
:1000AE00D8F130F52FC3E49CFCEF9BFFEE9AFEEDEA
:1000BE0099FDD0E0FBEF4E4D4C701222DB03020295
:1000CE00BDEC2CFCEF33FFEE33FEED33FDED30E7F0
:1000DE00EB020298EF2BFFEE3AFEED39FDD0E0FB7E
:1000EE0050130BBB00030202C0ED13FDEE13FEEF27
:0800FE0013FFEC13FC02029851
:10010600EC4D6011E8497017ED33EC3304600DE4F3
:10011600FCFFFEFD22E933E8330470F80202B61252
:10012600028158046009E4CC248150062850090253
:1001360002C02840030202BDC0E0EB4A7044B98009
:1001460006D0E0FB0202ACEF4E701CBD8008EBFF50
:10015600EAFEE9FD80EBE98DF0A4FEE5F00201EF91
:10016600E9CDF9EAFEEBFFEF89F0A4FCE5F0CE89D4
:10017600F0A42EFFE435F0CD89F0A42DFEE435F091
:100186008067EF4E7005BD80D780C3EF8BF0A4ACBF
:10019600F0EE8BF0A42CFCE435F0F8EF8AF0A42CFA
:1001A600E5F038FCE433CB8DF0A42CFCE5F03BF80D
:1001B600EE8AF0A42CFCE5F038F8E433CF89F0A4FD
:1001C6002CFCE5F038CF3400CE89F0A42FFFE5F003
:1001D6003EFEE433C98DF0A42EFEE5F039CD8AF05B
:1001E600A42FFFE5F03EFEE43DFD33D0E0FB5007D3
:1001F6000BBB000F0202C0EC2CFCEF33FFEE33FE0C
:06020600ED33FD02029839
:10020C0075F020800E75F010800575F0087D007E6D
:10021C00007F003392D530D503120301EC3340102C
:10022C00EF33FFEE33FEED33FDEC33FCD5F0ED2276
:0E023C00E5F0247EA2D513CC92E7CDCEFF22B2
:10024A00EDD2E7CD33EC3392D524814006E4FFFEAC
:10025A00FDFC22FCE4CFCECDCC24E0501174FF800B
:10026A00EDC3CC13CCCD13CDCE13CECF13CF0470A8
:07027A00F030D5DE020301A4
:10028100E9D2E7C933E833F892D5EDD2E7CD33ECC3
:0702910033FC5002B2D5223C
:10029800EC30E7100FBF000C0EBE00080DBD0004C7
:1002A8000BEB6014A2D5EB13FCED92E7FD2274FF73
:1002B800FCFDFEFF22E480F8A2D574FF13FC7D80CC
:0302C800E480EFE0
:0300000002056B8B
:0C056B00787FE4F6D8FD7581200205B20F
:1002CB00C2D5EC30E709B2D5E4C39DFDE49CFCEE4E
:1002DB0030E715B2D5E4C39FFFE49EFE12030FC3B4
:1002EB00E49DFDE49CFC800312030F30D507C3E4AF
:0602FB009FFFE49EFE22BD
:0E030100C3E49FFFE49EFEE49DFDE49CFC220D
:10057700020661E493A3F8E493A34003F68001F233
:1005870008DFF48029E493A3F85407240CC8C33385
:10059700C4540F4420C8834004F456800146F6DF54
:1005A700E4800B0102040810204080900827E47EB5
:1005B700019360BCA3FF543F30E509541FFEE49349
:1005C700A360010ECF54C025E060A840B8E493A310
:1005D700FAE493A3F8E493A3C8C582C8CAC583CA3B
:1005E700F0A3C8C582C8CAC583CADFE9DEE780BEF3
:0108330000C4
:10030F00BC000BBE0029EF8DF084FFADF022E4CCD2
:10031F00F875F008EF2FFFEE33FEEC33FCEE9DEC9B
:10032F00984005FCEE9DFE0FD5F0E9E4CEFD22EDE1
:10033F00F8F5F0EE8420D21CFEADF075F008EF2F2B
:10034F00FFED33FD4007985006D5F0F222C398FD1C
:05035F000FD5F0EA22B9
:00000001FF
