:0907CF0004203030303001240018
:0108280022AD
:10000E001207E5120817D2AF1208238E128F137C37
:10001E00037DE8120659C3EF9401EE9400506E85ED
:10002E001212851313AE12AF137C037DE81206591C
:10003E00EF2430F520AE12AF137C007D641206590A
:10004E007C007D0A120659ED2430F521AE12AF1355
:10005E007C007D641206597E007F0ACFCDCFCECCB8
:10006E00CE120659EF2430F522AE12AF137C007D6E
:10007E000A120659ED2430F5237B007A007920759B
:10008E001804AD24120760D2A3C2A2D2A1AE12AF41
:10009E00137C037DE8120659C3EF9401EE940040E1
:1000AE007BEF9402EE9400507374AB2513F513742A
:1000BE00FF3512F512FEAF137C037DE8120659EFE1
:1000CE002430F520AE12AF137C007D641206597CED
:1000DE00007D0A120659ED2430F521AE12AF137CC5
:1000EE00007D641206597E007F0ACFCDCFCECCCED6
:1000FE00120659EF2430F522AE12AF137C007D0AA2
:10010E00120659ED2430F5237B007A0079207518FC
:10011E0004AD24120760D2A3C2A2D2A1AE12AF13B5
:10012E007C037DE8120659C3EF9402EE9400407BE7
:10013E00EF9403EE9400507374562513F51374FF69
:10014E003512F512FEAF137C037DE8120659EF242B
:10015E0030F520AE12AF137C007D641206597C0080
:10016E007D0A120659ED2430F521AE12AF137C0034
:10017E007D641206597E007F0ACFCDCFCECCCE1233
:10018E000659EF2430F522AE12AF137C007D0A1211
:10019E000659ED2430F5237B007A0079207518047A
:1001AE00AD24120760C2A2D2A3C2A1AE12AF137CBD
:1001BE00037DE8120659C3EF9403EE9400407BEFE3
:1001CE009404EE9400507374012513F51374FF35E7
:1001DE0012F512FEAF137C037DE8120659EF2430A0
:1001EE00F520AE12AF137C007D641206597C007DA3
:1001FE000A120659ED2430F521AE12AF137C007DA4
:10020E00641206597E007F0ACFCDCFCECCCE120619
:10021E0059EF2430F522AE12AF137C007D0A120680
:10022E0059ED2430F5237B007A007920751804AD42
:10023E0024120760C2A2D2A3C2A1AE12AF137C03D6
:10024E007DE8120659C3EF9404EE9400407BEF94C0
:10025E0005EE9400507374AC2513F51374FE35122D
:10026E00F512FEAF137C037DE8120659EF2430F52C
:10027E0020AE12AF137C007D641206597C007D0AFD
:10028E00120659ED2430F521AE12AF137C007D64B9
:10029E001206597E007F0ACFCDCFCECCCE12065994
:1002AE00EF2430F522AE12AF137C007D0A120659F0
:1002BE00ED2430F5237B007A007920751804AD24E7
:1002CE00120760C2A2D2A3C2A1AE12AF137C037DED
:1002DE00E8120659C3EF9405EE9400407BEF9406A6
:1002EE00EE9400507374572513F51374FE3512F502
:1002FE0012FEAF137C037DE8120659EF2430F52071
:10030E00AE12AF137C007D641206597C007D0A127A
:10031E000659ED2430F521AE12AF137C007D641228
:10032E0006597E007F0ACFCDCFCECCCE120659EF26
:10033E002430F522AE12AF137C007D0A120659ED61
:10034E002430F5237B007A007920751804AD241231
:10035E000760D2A2C2A3C2A1AE12AF137C037DE886
:10036E00120659C3EF9406EE9400407BEF9407EE0D
:10037E009400507374022513F51374FE3512F512A2
:10038E00FEAF137C037DE8120659EF2430F520AE44
:10039E0012AF137C007D641206597C007D0A120692
:1003AE0059ED2430F521AE12AF137C007D64120698
:1003BE00597E007F0ACFCDCFCECCCE120659EF2478
:1003CE0030F522AE12AF137C007D0A120659ED24D1
:1003DE0030F5237B007A007920751804AD241207BE
:1003EE0060D2A2C2A3C2A1AE12AF137C037DE812EB
:1003FE000659C3EF9407EE9400407BEF9408EE94F9
:10040E0000507374AD2513F51374FD3512F512FEFD
:10041E00AF137C037DE8120659EF2430F520AE129F
:10042E00AF137C007D641206597C007D0A120659BA
:10043E00ED2430F521AE12AF137C007D6412065907
:10044E007E007F0ACFCDCFCECCCE120659EF243010
:10045E00F522AE12AF137C007D0A120659ED243040
:10046E00F5237B007A007920751804AD24120760FD
:10047E00D2A2C2A3C2A1AE12AF137C037DE81206B4
:10048E0059C3EF9408EE9400407BEF9409EE94006C
:10049E00507374582513F51374FD3512F512FEAF13
:1004AE00137C037DE8120659EF2430F520AE12AF0F
:1004BE00137C007D641206597C007D0A120659EDEC
:1004CE002430F521AE12AF137C007D641206597EE6
:1004DE00007F0ACFCDCFCECCCE120659EF2430F509
:1004EE0022AE12AF137C007D0A120659ED2430F5B0
:1004FE00237B007A007920751804AD24120760D290
:10050E00A2C2A3C2A1AE12AF137C037DE81206599C
:10051E00C3EF9409EE9400500302001674032513E2
:10052E00F51374FD3512F512FEAF137C037DE81240
:10053E000659EF2430F520AE12AF137C007D641205
:10054E0006597C007D0A120659ED2430F521AE12B3
:10055E00AF137C007D641206597E007F0ACFCDCF8B
:10056E00CECCCE120659EF2430F522AE12AF137C4C
:10057E00007D0A120659ED2430F5237B007A0079AE
:10058E0020751804AD24120760D2A3C2A2C2A10224
:02059E00001645
:0C07D8000A085F419DD5C3D6DE45DFD77F
:0407AD007F047E0047
:1007B100EF1FAA0670011E4A6013E4FCFDC3ED940D
:0D07C10064EC940050EA0DBD00010C80F0C6
:0107CE002208
:0C081700850880D2A6D2A5D2A4D2A722C8
:10071300BB01048F808017EB7014EF24D0C3940ABD
:10072300500974D82FF8E6F5808003850880ED24FE
:10073300FE601214601714601C2403701FC2A612FB
:1007430007ADD2A622C2A51207ADD2A522C2A4121A
:0D07530007ADD2A422C2A71207ADD2A72283
:080760008B148A1589168D1710
:10076800E4F519E519C39518503AE517AB14AA151D
:10077800A91630E01285198275830012062CFFE550
:100788001904FD7B01801085198275830012062CDF
:10079800FFE51904FDE4FB120713E517C313F5176A
:0407A800051980BFF0
:0107AC00222A
:1007F900438901758CFC758A18D2A975B802D28C07
:0108090022CC
:05000600D2A8D28822FF
:1007E5001207F9120006E4F51EF51FF51AF51BF5BB
:0407F5001CF51D22B0
:03000B000206AE3C
:1006AE00C0E0C0F0C0D075D000C000C004C005C00E
:1006BE0006C007758CFC758A18C2AFC3E51F94E897
:1006CE00E51E9403500A051FE51F7026051E8022A5
:1006DE00AE1AAF1B7C007D24120659C3E51B9FF595
:1006EE001DE51A9EF51C751A00751B00751E00750A
:1006FE001F00D2AFD007D006D005D004D000D0D086
:05070E00D0F0D0E03244
:0300030002080AE6
:0D080A00C0E0051BE51B7002051AD0E032AE
:05082300AE1CAF1D2218
:030000000205A056
:0C05A000787FE4F6D8FD7581240205E7A1
:10062C00BB010CE58229F582E5833AF583E0225083
:10063C0006E92582F8E622BBFE06E92582F8E222CD
:0D064C00E58229F582E5833AF583E49322E7
:10065900BC000BBE0029EF8DF084FFADF022E4CC85
:10066900F875F008EF2FFFEE33FEEC33FCEE9DEC4E
:10067900984005FCEE9DFE0FD5F0E9E4CEFD22ED94
:10068900F8F5F0EE8420D21CFEADF075F008EF2FDE
:10069900FFED33FD4007985006D5F0F222C398FDCF
:0506A9000FD5F0EA226C
:1005AC0002000EE493A3F8E493A34003F68001F257
:1005BC0008DFF48029E493A3F85407240CC8C33350
:1005CC00C4540F4420C8834004F456800146F6DF1F
:1005DC00E4800B01020408102040809007CFE47ED9
:1005EC00019360BCA3FF543F30E509541FFEE49314
:1005FC00A360010ECF54C025E060A840B8E493A3DB
:10060C00FAE493A3F8E493A3C8C582C8CAC583CA05
:10061C00F0A3C8C582C8CAC583CADFE9DEE780BEBD
:0107E4000014
:00000001FF
