:1006A80002240000022200000126000427000000A6
:1006B80000043B00000032012100C1000C2F3F065E
:1006C8005B4F666D7D077F6F40FF043F00000000B1
:0606D800042B00000000ED
:0C000E007F027E267D3CDDFEDEFADFF680
:01001A0022C3
:1004FE00E5217068F580E526B4010E243FF8E62468
:10050E002FF8E64480F5808017E5267007E53AF46B
:10051E00F580800C743F2526F8E6242FF8E6F5804A
:10052E00E52614601014601714601E24037022C296
:10053E00A0D2A18004D2A0C2A1D2A2D2A38012D2F4
:10054E00A0D2A1C2A2D2A38008D2A0D2A1D2A2C20E
:10055E00A30526E526D39403406A8065E4F580E57D
:10056E0026B4010E242BF8E6242FF8E64480F580FD
:10057E008015E5267005758076800C742B2526F87F
:10058E00E6242FF8E6F580E52614601014601714A3
:10059E00601E24037022C2A0D2A18004D2A0C2A1E8
:1005AE00D2A2D2A38012D2A0D2A1C2A2D2A380087C
:1005BE00D2A0D2A1D2A2C2A30526E526D39403408F
:0505CE0003E4F5262204
:10037000AF8CEFFEAD8A7C00E42DF525EC3EF52434
:10038000E4F58CF58AAC24AD251201C97B9A7A99E3
:1003900079D9783F12001EE4FBFA79C8784212013D
:1003A000271202028F2A8E298D288C27E5216003CF
:1003B00002046A7FBC7E02FDFCAB2AAA29A928A8F8
:1003C00027C312035F500330000CC20075400A754A
:1003D000410A75420A22E47BE87A03F9F8AF2AAEB3
:1003E00029AD28AC271202BFAC00AD01AE02AF03AD
:1003F000E47B64FAF9F81202BF8F40E47BE87A03E9
:10040000F9F8AF2AAE29AD28AC271202BFAC00AD77
:1004100001AE02AF03E47B64FAF9F81202BFAC004C
:10042000AD01AE02AF03E47B0AFAF9F81202BF8F06
:1004300041E47BE87A03F9F8AF2AAE29AD28AC276E
:100440001202BFAC00AD01AE02AF03E47B0AFAF9C1
:10045000F81202BFAC00AD01AE02AF03E47B0AFAB2
:10046000F9F81202BFAF038F4222E47BE87A03F966
:10047000F8AF3EAE3DAD3CAC3B1202BFAC00AD01AF
:10048000AE02AF03E47B64FAF9F81202BF8F2CE4EA
:100490007BE87A03F9F8AF3EAE3DAD3CAC3B1202CF
:1004A000BFAC00AD01AE02AF03E47B64FAF9F81211
:1004B00002BFAC00AD01AE02AF03E47B0AFAF9F86B
:1004C0001202BF8F2DE47BE87A03F9F8AF3EAE3D10
:1004D000AD3CAC3B1202BFAC00AD01AE02AF03E4D9
:1004E0007B0AFAF9F81202BFAC00AD01AE02AF030D
:0E04F000E47B0AFAF9F81202BFAF038F2E2246
:03000B00020003ED
:03000300D20032F6
:03001B0002065F7B
:10065F00C0E0C0D075D000C000758DF8758B30121A
:10066F0004FE0523E52370020522C39490E522942E
:10067F0001401F752200752300D2B3000000000057
:10068F00000000000000000000000000000000005B
:09069F00C2B3D000D0D0D0E0328B
:1006DF00758911E4F58CF58A758DF8758B30D2A973
:1006EF00D2ABD28ED2AF30B2FDD28C20B2FDC28C43
:0506FF0012037080F100
:10001E00EC4D6011E8497017ED33EC3304600DE4DC
:10002E00FCFFFEFD22E933E8330470F802026E1283
:10003E00023958046009E4CC248150062850090284
:10004E000278284003020275C0E0EB4A7044B98082
:10005E0006D0E0FB020264EF4E701CBD8008EBFF81
:10006E00EAFEE9FD80EBE98DF0A4FEE5F002010762
:10007E00E9CDF9EAFEEBFFEF89F0A4FCE5F0CE89BD
:10008E00F0A42EFFE435F0CD89F0A42DFEE435F07A
:10009E008067EF4E7005BD80D780C3EF8BF0A4ACA8
:1000AE00F0EE8BF0A42CFCE435F0F8EF8AF0A42CE3
:1000BE00E5F038FCE433CB8DF0A42CFCE5F03BF8F6
:1000CE00EE8AF0A42CFCE5F038F8E433CF89F0A4E6
:1000DE002CFCE5F038CF3400CE89F0A42FFFE5F0EC
:1000EE003EFEE433C98DF0A42EFEE5F039CD8AF044
:1000FE00A42FFFE5F03EFEE43DFD33D0E0FB5007BC
:10010E000BBB000F020278EC2CFCEF33FFEE33FE3C
:06011E00ED33FD0202506A
:10012400020278EC5D046005E85904700302026E73
:10013400120239580460F6EC4860F2EC7004FDFEDB
:10014400FF22C860DB2481C85009C39860025006AE
:100154000202759850CAF582E9294B4A7005AB82B0
:1001640002026475F0007C1A7880C3EF9BEE9AED6E
:1001740099400DC3EF9BFFEE9AFEED99FDE842F026
:10018400DC23ACF0D0E0FFD0E0FED0E0FDAB822079
:10019400E7101BEB60BAEC2CFCEF33FFEE33FEED03
:1001A40033FD020250E803F830E705C0F075F000B3
:1001B400EF2FFFEE33FEED33FD40B830E7C280AAE7
:1001C40075F020800E75F010800575F0087D007EB6
:1001D400007F003392D530D503120351EC33401025
:1001E400EF33FFEE33FEED33FDEC33FCD5F0ED22BF
:0E01F400E5F0247EA2D513CC92E7CDCEFF22FB
:10020200EDD2E7CD33EC3392D524814006E4FFFEF4
:10021200FDFC22FCE4CFCECDCC24E0501174FF8053
:10022200EDC3CC13CCCD13CDCE13CECF13CF0470F0
:07023200F030D5DE0203519C
:10023900E9D2E7C933E833F892D5EDD2E7CD33EC0B
:0702490033FC5002B2D52284
:10025000EC30E7100FBF000C0EBE00080DBD00040F
:100260000BEB6014A2D5EB13FCED92E7FD2274FFBB
:10027000FCFDFEFF22E480F8A2D574FF13FC7D8014
:03028000E480EF28
:030000000205D323
:0C05D300787FE4F6D8FD75814202061A1C
:1002830075F008758200EF2FFFEE33FECD33CDCC32
:1002930033CCC58233C5829BED9AEC99E5829840B5
:1002A3000CF582EE9BFEED9AFDEC99FC0FD5F0D692
:1002B300E4CEFBE4CDFAE4CCF9A88222B800C1B9BC
:1002C3000059BA002DEC8BF084CFCECDFCE5F0CBFA
:1002D300F97818EF2FFFEE33FEED33FDEC33FCEB33
:1002E30033FB10D703994004EB99FB0FD8E5E4F9EE
:1002F300FA227818EF2FFFEE33FEED33FDEC33FCDB
:10030300C933C910D7059BE99A4007EC9BFCE99ACE
:10031300F90FD8E0E4C9FAE4CCFB2275F010EF2F13
:10032300FFEE33FEED33FDCC33CCC833C810D70713
:100333009BEC9AE899400AED9BFDEC9AFCE899F84E
:0E0343000FD5F0DAE4CDFBE4CCFAE4C8F922E1
:0E035100C3E49FFFE49EFEE49DFDE49CFC22BD
:10035F00EB9FF5F0EA9E42F0E99D42F0E89C45F0F4
:01036F00226B
:1005DF000206DFE493A3F8E493A34003F68001F24D
:1005EF0008DFF48029E493A3F85407240CC8C3331D
:1005FF00C4540F4420C8834004F456800146F6DFEC
:10060F00E4800B01020408102040809006A8E47ECD
:10061F00019360BCA3FF543F30E509541FFEE493E0
:10062F00A360010ECF54C025E060A840B8E493A3A7
:10063F00FAE493A3F8E493A3C8C582C8CAC583CAD2
:10064F00F0A3C8C582C8CAC583CADFE9DEE780BE8A
:0106DE00001B
:00000001FF
