:10085F003F065B4F666D7D077F6F777C395E7971E1
:04086F007FBFDFEF79
:10083200102D3F065B4F666D7D077F6F777C395EBB
:070842007971012504C1805A
:0C087300C2AF53E51843E50143E58022C5
:0908940053E57FE4F5E6D2AF2242
:0B087F0012087375E64675E6B900220A
:1007E000AD07AC06C2AF8CE3EDF5E453E7F843E7A1
:0C07F0000112087F120894D2AFAFE22281
:10084A00EE54FEFEF5E3E4F5E453E7F843E703125A
:05085A00087F02089474
:1007FC00AB07AA06C2AF12084A8AE3EBF5E443E75B
:0C080C00028DE212087F120894D2AF2285
:1007A000E4FDFCC3ED9FEC9E5015E4FBFA0BBB008F
:0F07B000010AEB64784A70F50DBD00010C80E47E
:0107BF002217
:1006E8007F017E201207E0E48F2BF52AF529F528F3
:1006F800AE2AAD29AC2878081201E08F2B8E2A8DFE
:10070800298C287F007E201207E0E52B4FF52BE58A
:100718002AF52AE529F529E528F5287F581207E062
:030728008F2622F7
:10061A007F007E2012084AE4FB7A01F9F8AF2BAE7C
:10062A002AAD29AC281206A4AF03AD077F007E20AD
:10063A001207FCE4FB7A01F9F8AF2BAE2AAD29AC1C
:10064A00281206A4AD077F017E201207FCAD267F83
:06065A00587E200207FC9F
:100818001206E8E52664216010752621E4752B5040
:0A082800F52AF529F52812061A2218
:1005BA00E4FFFEFDC2B2D2B40000D2B30000C2B35F
:1005CA00D2B40000D2B30000C2B3C2B40000D2B3A6
:1005DA000000C2B3D2B40000D2B30000C2B3EE2509
:1005EA00E0FE30B4034306010FBF08EAE4FFEDC39F
:1005FA0013FD30B4034305800000D2B30000C2B338
:0F060A000FBF08EAD2B2EEB50503FF80027F00F2
:0106190022BE
:10066000752C1443A00FE5A0540F640F60327F0176
:100670007E001207A0E5A0540F640F6026E521B4A8
:100680000121E4F521E5A0540F24F5600F24FE605C
:100690000714700F752C0322752C0222752C012271
:0306A000752101C0
:0106A3002234
:10042200E52CB4010C0527E527C394024003E4F54B
:1004320027E5276401600302052D752504E52CB428
:100442000239E4FAF9F8E52B2401F52BEA352AF50D
:100452002AE93529F529E83528F528E47FF47E01D3
:10046200FDFCAB2BAA2AA929A828D31201CA400B4A
:10047200E4752BF4752A01F529F528E52CB4033629
:1004820074FF252BF52BE52A34FFF52AE52934FFE5
:10049200F529E52834FFF528E47F01FEFDFCAB2BAE
:1004A200AA2AA929A828D31201CA500AE4752B0145
:1004B200F52AF529F528E47B0AFAF9F8AF2BAE2ADA
:1004C200AD29AC281206A4745F2BF58274083AF5A4
:1004D20083E493F52DE47B0AFAF9F8AF2BAE2AAD4B
:1004E20029AC281206A4E47B0AFAF9F81206A474CD
:1004F2005F2BF58274083AF583E493F52EE47B646E
:10050200FAF9F8AF2BAE2AAD29AC281206A4E47B87
:100512000AFAF9F81206A4745F2BF58274083AF508
:0C05220083E493F52F75300512061A22B1
:1007C000E4F590E52290086F93F5A0742D2522F8AA
:0F07D000E6F5900522E522C395254003E4F522C6
:0107DF0022F7
:0A088A00D2AF758901D2A9D28C22E9
:10072B00AF2BAE2AAD29AC28AB40AA3FA93EA83DC2
:10073B00C31201CA400E0523E52394024021752301
:10074B000AB2B622AF2BAE2AAD29AC28AB40AA3FDA
:0F075B00A93EA83DC31201CA5005E4F523D2B64A
:01076A00226C
:1002C100C2B67F967E001207A075B0FF75A0FF75BC
:1002D10090FF7580FF12088A120818120660E52C3B
:1002E100C3940A50031204223000F0C20012072BFB
:1002F1001205BAE48F40F53FF53EF53D7FC27E0120
:10030100FDFCAB40AA3FA93EA83D12016DEC1200D5
:10031100AEE4FBFA797F78431200111200EC8F40B2
:100321008E3F8D3E8C3DE540249CF540E53F34FFFA
:10033100F53FE53E34FFF53EE53D34FFF53D3350F5
:1003410009E4F540F53FF53EF53DAF40AE3FAD3E2A
:10035100AC3DE47B02FAF9F812016D8F408E3F8DBE
:100361003E8C3DE52760030202DC7FE87E03FDFC55
:10037100AB40AA3FA93EA83DC31201CA400575255D
:10038100048003752503E47BE87A03F9F8AF40AEF6
:100391003FAD3EAC3D1206A4E47B0AFAF9F8120621
:1003A100A4745F2BF58274083AF583E493F530E485
:1003B1007B64FAF9F8AF40AE3FAD3EAC3D1206A406
:1003C100E47B0AFAF9F81206A4745F2BF58274082B
:1003D1003AF583E493F52FE47B0AFAF9F8AF40AEDE
:1003E1003FAD3EAC3D1206A4E47B0AFAF9F81206D1
:1003F100A4745F2BF58274083AF583E493F52EE437
:100401007B0AFAF9F8AF40AE3FAD3EAC3D1206A40F
:10041100745F2BF58274083AF583E493F52D02029B
:01042100DCFE
:03000B0002076B7E
:0F076B00C0E0C0F0C083C082C0D075D000C00015
:10077A00758CF8758A301207C00524E52475F09641
:09078A0084E5F07004D200F524AE
:0D079300D000D0D0D082D083D0F0D0E032A2
:10000E00020162EC5D046005E859047003020158B8
:10001E00120123580460F6EC4860F2EC7004FDFE09
:10002E00FF22C860DB2481C85009C39860025006C5
:10003E0002015F9850CAF582E9294B4A7005AB82DE
:10004E0002014E75F0007C1A7880C3EF9BEE9AED9C
:10005E0099400DC3EF9BFFEE9AFEED99FDE842F03D
:10006E00DC23ACF0D0E0FFD0E0FED0E0FDAB822090
:10007E00E7101BEB60BAEC2CFCEF33FFEE33FEED1A
:10008E0033FD02013AE803F830E705C0F075F000E1
:10009E00EF2FFFEE33FEED33FD40B830E7C280AAFE
:1000AE0075F020800E75F010800575F0087D007ECD
:1000BE00007F003392D530D5031201BCEC334010D3
:1000CE00EF33FFEE33FEED33FDEC33FCD5F0ED22D6
:0E00DE00E5F0247EA2D513CC92E7CDCEFF2212
:1000EC00EDD2E7CD33EC3392D524814006E4FFFE0C
:1000FC00FDFC22FCE4CFCECDCC24E0501174FF806B
:10010C00EDC3CC13CCCD13CDCE13CECF13CF047007
:07011C00F030D5DE0201BC4A
:10012300E9D2E7C933E833F892D5EDD2E7CD33EC22
:0701330033FC5002B2D5229B
:10013A00EC30E7100FBF000C0EBE00080DBD000426
:10014A000BEB6014A2D5EB13FCED92E7FD2274FFD2
:10015A00FCFDFEFF22E480F8A2D574FF13FC7D802B
:03016A00E480EF3F
:0300000002052EC8
:0C052E00787FE4F6D8FD75814002057569
:10016D00E88FF0A4CC8BF0A42CFCE98EF0A42CFC31
:10017D008AF0EDA42CFCEA8EF0A4CDA8F08BF0A4AF
:10018D002DCC3825F0FDE98FF0A42CCD35F0FCEB0E
:10019D008EF0A4FEA9F0EB8FF0A4CFC5F02ECD39D3
:0F01AD00FEE43CFCEAA42DCE35F0FDE43CFC2240
:1006A400C2D5E830E70FB2D5E4C39BFBE49AFAE481
:1006B40099F9E498F8EC30E717B2D51206DA120289
:1006C4002FE4C39BFBE49AFAE499F9E498F88003D5
:1006D40012022F30D50DE4C39FFFE49EFEE49DFD7E
:0406E400E49CFC2274
:0E01BC00C3E49FFFE49EFEE49DFDE49CFC2254
:1001CA00EB9FF5F0EA9E42F0E99D42F0EC6480C8AC
:0601DA0064809845F0224C
:1001E000E8600FEFC333FFEE33FEED33FDEC33FC7D
:0301F000D8F12221
:10053A000202C1E493A3F8E493A34003F68001F214
:10054A0008DFF48029E493A3F85407240CC8C333C2
:10055A00C4540F4420C8834004F456800146F6DF91
:10056A00E4800B0102040810204080900832E47EE7
:10057A00019360BCA3FF543F30E509541FFEE49386
:10058A00A360010ECF54C025E060A840B8E493A34D
:10059A00FAE493A3F8E493A3C8C582C8CAC583CA78
:1005AA00F0A3C8C582C8CAC583CADFE9DEE780BE30
:0108490000AE
:1001F30075F008758200EF2FFFEE33FECD33CDCCC3
:1002030033CCC58233C5829BED9AEC99E582984045
:100213000CF582EE9BFEED9AFDEC99FC0FD5F0D622
:10022300E4CEFBE4CDFAE4CCF9A88222B800C1B94C
:100233000059BA002DEC8BF084CFCECDFCE5F0CB8A
:10024300F97818EF2FFFEE33FEED33FDEC33FCEBC3
:1002530033FB10D703994004EB99FB0FD8E5E4F97E
:10026300FA227818EF2FFFEE33FEED33FDEC33FC6B
:10027300C933C910D7059BE99A4007EC9BFCE99A5F
:10028300F90FD8E0E4C9FAE4CCFB2275F010EF2FA4
:10029300FFEE33FEED33FDCC33CCC833C810D707A4
:1002A3009BEC9AE899400AED9BFDEC9AFCE899F8DF
:0E02B3000FD5F0DAE4CDFBE4CCFAE4C8F92272
:00000001FF
