:100730000228000002260000012A00042B0000000D
:1007400000043F00000032012100C1000C333F06CD
:100750005B4F666D7D077F6F40FF0422FDFBF7FE58
:0C076000044300000000042F0000000013
:0C000E007F0A7E267D82DDFEDEFADFF632
:01001A0022C3
:10051E0020943812000E20940543900F80F8E54287
:10052E002401F542E43541F541E43540F540E4352A
:10053E003FF53FE47F97FEFDFCAB42AA41A940A8E0
:10054E003FC312035F705FF542803C20954012005E
:10055E000E20950543900F80F8E54224FFF542E505
:10056E004134FFF541E54034FFF540E53F34FFF5FA
:10057E003FE4FFFEFDFCAB42AA41A940A83FC312D7
:10058E00035F7022754296F541F540F53F222096A5
:10059E001512000E20960543900F80F80521E521D7
:0705AE00B40203E4F5212271
:10064100E5217035F580E52A70107443252AF8E616
:100651002433F8E64480F580800C7443252AF8E6BB
:100661002433F8E6F5807422252AF8E6F590052A68
:10067100E52AC394034043803EE4F580E52A7010E7
:10068100742F252AF8E62433F8E64480F580801695
:10069100E52AB40305758076800C742F252AF8E6C7
:1006A1002433F8E6F5807422252AF8E6F590052A28
:0B06B100E52AC394044003E4F52A226C
:10037000AF8CEFFEAD8A7C00E42DF529EC3EF5282C
:10038000E4F58CF58AAC28AD291201C97B9A7A99DB
:1003900079D9783F12001EE4FBFA79C8784212013D
:1003A000271202028F2E8E2D8D2C8C2BE5216003BF
:1003B0000204887FBC7E02FDFCAB2EAA2DA92CA8CE
:1003C0002BC312035F500330000EC2A0C20075435E
:1003D0000A75440A75450A22AF42AE41AD40AC3FB2
:1003E000AB2EAA2DA92CA82BD312035F5004C2A0B8
:1003F0008002D2A0E47BE87A03F9F8AF2EAE2DADEF
:100400002CAC2B1202BFAC00AD01AE02AF03E47BFB
:1004100064FAF9F81202BF8F43E47BE87A03F9F833
:10042000AF2EAE2DAD2CAC2B1202BFAC00AD01AE89
:1004300002AF03E47B64FAF9F81202BFAC00AD012D
:10044000AE02AF03E47B0AFAF9F81202BF8F44E46C
:100450007BE87A03F9F8AF2EAE2DAD2CAC2B12024F
:10046000BFAC00AD01AE02AF03E47B0AFAF9F812AB
:1004700002BFAC00AD01AE02AF03E47B0AFAF9F8AB
:100480001202BFAF038F4522D2A0E47BE87A03F9C2
:10049000F8AF42AE41AD40AC3F1202BFAC00AD017F
:1004A000AE02AF03E47B64FAF9F81202BF8F2FE4C7
:1004B0007BE87A03F9F8AF42AE41AD40AC3F12029F
:1004C000BFAC00AD01AE02AF03E47B64FAF9F812F1
:1004D00002BFAC00AD01AE02AF03E47B0AFAF9F84B
:1004E0001202BF8F30E47BE87A03F9F8AF42AE41E5
:1004F000AD40AC3F1202BFAC00AD01AE02AF03E4B1
:100500007B0AFAF9F81202BFAC00AD01AE02AF03EC
:0E051000E47B0AFAF9F81202BFAF038F312222
:03000B00020003ED
:03000300D20032F6
:03001B000206BC1E
:1006BC00C0E0C0F0C083C082C0D075D000C000C004
:1006CC0001C002C003C004C005C006C007758DF888
:1006DC00758B3012051E1206410527E527700205A1
:1006EC0026C39490E5269401401F752600752700BB
:1006FC00D2B3000000000000000000000000000069
:10070C0000000000000000C2B3D007D006D005D016
:10071C0004D003D002D001D000D0D0D082D083D06E
:04072C00F0D0E032F7
:10076D00758911E4F58CF58A758DF8758B30D2A9E4
:10077D00D2ABD28ED2AF30B2FDD28C20B2FDC28CB4
:05078D0012037080F171
:10001E00EC4D6011E8497017ED33EC3304600DE4DC
:10002E00FCFFFEFD22E933E8330470F802026E1283
:10003E00023958046009E4CC248150062850090284
:10004E000278284003020275C0E0EB4A7044B98082
:10005E0006D0E0FB020264EF4E701CBD8008EBFF81
:10006E00EAFEE9FD80EBE98DF0A4FEE5F002010762
:10007E00E9CDF9EAFEEBFFEF89F0A4FCE5F0CE89BD
:10008E00F0A42EFFE435F0CD89F0A42DFEE435F07A
:10009E008067EF4E7005BD80D780C3EF8BF0A4ACA8
:1000AE00F0EE8BF0A42CFCE435F0F8EF8AF0A42CE3
:1000BE00E5F038FCE433CB8DF0A42CFCE5F03BF8F6
:1000CE00EE8AF0A42CFCE5F038F8E433CF89F0A4E6
:1000DE002CFCE5F038CF3400CE89F0A42FFFE5F0EC
:1000EE003EFEE433C98DF0A42EFEE5F039CD8AF044
:1000FE00A42FFFE5F03EFEE43DFD33D0E0FB5007BC
:10010E000BBB000F020278EC2CFCEF33FFEE33FE3C
:06011E00ED33FD0202506A
:10012400020278EC5D046005E85904700302026E73
:10013400120239580460F6EC4860F2EC7004FDFEDB
:10014400FF22C860DB2481C85009C39860025006AE
:100154000202759850CAF582E9294B4A7005AB82B0
:1001640002026475F0007C1A7880C3EF9BEE9AED6E
:1001740099400DC3EF9BFFEE9AFEED99FDE842F026
:10018400DC23ACF0D0E0FFD0E0FED0E0FDAB822079
:10019400E7101BEB60BAEC2CFCEF33FFEE33FEED03
:1001A40033FD020250E803F830E705C0F075F000B3
:1001B400EF2FFFEE33FEED33FD40B830E7C280AAE7
:1001C40075F020800E75F010800575F0087D007EB6
:1001D400007F003392D530D503120351EC33401025
:1001E400EF33FFEE33FEED33FDEC33FCD5F0ED22BF
:0E01F400E5F0247EA2D513CC92E7CDCEFF22FB
:10020200EDD2E7CD33EC3392D524814006E4FFFEF4
:10021200FDFC22FCE4CFCECDCC24E0501174FF8053
:10022200EDC3CC13CCCD13CDCE13CECF13CF0470F0
:07023200F030D5DE0203519C
:10023900E9D2E7C933E833F892D5EDD2E7CD33EC0B
:0702490033FC5002B2D52284
:10025000EC30E7100FBF000C0EBE00080DBD00040F
:100260000BEB6014A2D5EB13FCED92E7FD2274FFBB
:10027000FCFDFEFF22E480F8A2D574FF13FC7D8014
:03028000E480EF28
:030000000205B541
:0C05B500787FE4F6D8FD7581460205FC55
:1002830075F008758200EF2FFFEE33FECD33CDCC32
:1002930033CCC58233C5829BED9AEC99E5829840B5
:1002A3000CF582EE9BFEED9AFDEC99FC0FD5F0D692
:1002B300E4CEFBE4CDFAE4CCF9A88222B800C1B9BC
:1002C3000059BA002DEC8BF084CFCECDFCE5F0CBFA
:1002D300F97818EF2FFFEE33FEED33FDEC33FCEB33
:1002E30033FB10D703994004EB99FB0FD8E5E4F9EE
:1002F300FA227818EF2FFFEE33FEED33FDEC33FCDB
:10030300C933C910D7059BE99A4007EC9BFCE99ACE
:10031300F90FD8E0E4C9FAE4CCFB2275F010EF2F13
:10032300FFEE33FEED33FDCC33CCC833C810D70713
:100333009BEC9AE899400AED9BFDEC9AFCE899F84E
:0E0343000FD5F0DAE4CDFBE4CCFAE4C8F922E1
:0E035100C3E49FFFE49EFEE49DFDE49CFC22BD
:10035F00EB9FF5F0EA9E42F0E99D42F0E89C45F0F4
:01036F00226B
:1005C10002076DE493A3F8E493A34003F68001F2DC
:1005D10008DFF48029E493A3F85407240CC8C3333B
:1005E100C4540F4420C8834004F456800146F6DF0A
:1005F100E4800B0102040810204080900730E47E63
:10060100019360BCA3FF543F30E509541FFEE493FE
:10061100A360010ECF54C025E060A840B8E493A3C5
:10062100FAE493A3F8E493A3C8C582C8CAC583CAF0
:10063100F0A3C8C582C8CAC583CADFE9DEE780BEA8
:01076C00008C
:00000001FF
